:100000000C9434000C9451000C9451000C94510049
:100010000C9406010C949F000C9451000C94510018
:100020000C9451000C9451000C9451000C9451000C
:100030000C9451000C9451000C9453000C945100FA
:100040000C9451000C9451000C9451000C945100EC
:100050000C9451000C9451000C9451000C945100DC
:100060000C9451000C94510011241FBECFEFD8E026
:10007000DEBFCDBF11E0A0E0B1E0ECE5FAE002C0E8
:1000800005900D92A234B107D9F711E0A2E4B1E0D6
:1000900001C01D92AA34B107E1F70E943E010C9401
:1000A0002C050C9400001F920F920FB60F92112492
:1000B0002F933F938F939F9320914001213099F587
:1000C0008091440190914501019690934501809360
:1000D00044018091440190914501885E934078F0FD
:1000E0001092450110924401809146019091470180
:1000F000019690934701809346012093410180919E
:10010000460190914701CC9788F0109247011092D8
:1001100046018091480190914901019690934901CF
:100120008093480103C085B5887F85BD9F918F91DD
:100130003F912F910F900FBE0F901F9018951F9217
:100140000F920FB60F9211241F932F933F934F934B
:100150005F936F937F938F939F93AF93BF93EF932F
:10016000FF9389B190E08870907023E09595879512
:100170002A95E1F780934201809142018823A1F5FD
:10018000809140018823E1F460E00E94140280E045
:1001900091E00E94F40110924501109244011092E6
:1001A000470110924601109249011092480181E0E6
:1001B000809341018093400185B5836085BD14C063
:1001C00010914001113081F485B5887F85BD8FEF96
:1001D0008093400180E060E00E94140285E091E09D
:1001E0000E94F40110934101FF91EF91BF91AF91F3
:1001F0009F918F917F916F915F914F913F912F913F
:100200001F910F900FBE0F901F9018951F920F9285
:100210000FB60F9211242F933F934F935F936F93D9
:100220007F938F939F93AF93BF93EF93FF9386B189
:1002300081708093430180914301882371F4809100
:1002400040018F3F51F480E060E00E9414028AE098
:1002500091E00E94F40110924001FF91EF91BF9153
:10026000AF919F918F917F916F915F914F913F914E
:100270002F910F900FBE0F901F901895CF92DF9285
:10028000EF92FF920F931F93DF93CF93CDB7DEB71B
:1002900061970FB6F894DEBF0FBECDBF53985B9A3F
:1002A0008091680084608093680080916D00886010
:1002B00080936D0084B5826084BD80916E00826001
:1002C00080936E008AEF87BD85B5887F85BD38989D
:1002D0008091680082608093680080916C008160EA
:1002E00080936C000E941E020E9410028FE091E039
:1002F0000E94F40181E060E00E9414028FE191E02D
:100300000E94F40180E197E220E931E0F9013197A0
:10031000F1F70197D9F70E94100278948E010F5FD0
:100320001F4F41E1C42ED12C30E3E32E31E0F32EF8
:10033000809141018130E1F71092410180914801A3
:10034000909149012091460130914701409144012B
:10035000509145016DB77EB76C5070400FB6F89460
:100360007EBF0FBE6DBFEDB7FEB73196ADB7BEB75E
:1003700012961C930E931197D382C282F582E48267
:100380009783868331872087538742870E9447025D
:100390006DB77EB7645F7F4F0FB6F8947EBF0FBE18
:1003A0006DBF81E060E00E941402C8010E94F40168
:1003B000BFCF9BB19F709BB99BB1807F892B8BB9BD
:1003C000299A299A299808951F93182F289A0E94EC
:1003D000D901812F8295807F0E94D90180E49FE11D
:1003E0000197F1F71F910895CF93DF93EC0102C0BD
:1003F0000E94E40189918823D9F7DF91CF91089574
:100400001F93182F28980E94D901812F8295807FF1
:100410000E94D90180E49FE10197F1F71F910895AF
:1004200081E00E9400020895882319F4862F8058E5
:1004300002C0862F80540E94000208958AB1806F06
:100440008AB984B1836084B980E69AEE0197F1F7A6
:1004500080E30E94D90180E29EE40197F1F780E3F6
:100460000E94D90180EE91E00197F1F780E30E94AC
:10047000D90180E20E94D90180E49FE10197F1F760
:1004800088E20E9400028CE00E9400020895AEE023
:10049000B0E0EDE4F2E00C9403050D891E898F892C
:1004A000988D97FF02C080E090E801979E838D832E
:1004B0001A83098386E08C839E01255E3F4FCE011F
:1004C0000196698D7A8DA9010E9478024D815E8125
:1004D00057FD0AC02F813885421753070CF49A0143
:1004E000020F131FF80110822E96E4E00C941F05F2
:1004F000ABE0B0E0EEE7F2E00C94F5043C012B0138
:100500005A01FC0117821682838181FD03C06FEFBF
:100510007FEFC6C19AE0892E1E010894211C311C70
:10052000F3012381F20123FD859123FF81912F01A6
:10053000882309F4B2C1853239F423FD859123FF64
:1005400081912F01853229F490E0B3010E946B0460
:10055000E7CF982FFF24EE249924FFE1FF15D0F078
:100560009B3269F09C3228F4903259F0933291F426
:100570000EC09D3249F0903369F441E024C052E04E
:10058000F52A84E0F82A28C098E0F92A25C0E0E19D
:10059000FE2A22C0F7FC29C0892F80538A3070F4CC
:1005A000F6FE05C0989C902C1124980E15C0E89C6E
:1005B000E02C1124E80EF0E2FF2A0EC09E3229F44E
:1005C000F6FC6BC140E4F42A07C09C3619F450E8ED
:1005D000F52A02C0983649F4F20123FD959123FFD4
:1005E00091912F01992309F0B8CF892F8554833039
:1005F00018F08052833038F444E050E0A40EB51E69
:100600005FE359830FC0933631F0933779F0933518
:1006100009F056C020C0F5018081898342E050E096
:10062000A40EB51E610101E010E012C0F501C0800A
:10063000D180F6FC03C06FEF7FEF02C0692D70E040
:1006400042E050E0A40EB51EC6010E9460048C0179
:100650005FE7F52214C0F501C080D180F6FC03C02D
:100660006FEF7FEF02C0692D70E042E050E0A40E12
:10067000B51EC6010E9455048C0150E8F52AF3FE10
:1006800007C01AC080E290E0B3010E946B04EA94B4
:100690008E2D90E008171907A8F30EC0F601F7FC9D
:1006A0008591F7FE81916F0190E0B3010E946B0488
:1006B000E110EA94015010400115110579F7EAC0E4
:1006C000943611F0993669F5F7FE08C0F5012081DE
:1006D00031814281538184E090E00AC0F50180813C
:1006E00091819C01442737FD4095542F82E090E092
:1006F000A80EB91E9FE6F92257FF09C050954095F4
:10070000309521953F4F4F4F5F4FE0E8FE2ACA01D9
:10071000B901A1012AE030E00E949704D82ED21836
:1007200040C0953729F41F2D1F7E2AE030E01DC000
:100730001F2D197F9F3661F0903720F4983509F00E
:10074000ACC00FC0903739F0983709F0A6C004C08C
:1007500028E030E00AC0106114FD146020E130E0B0
:1007600004C014FD166020E132E017FF08C0F50157
:10077000608171818281938144E050E008C0F5017D
:1007800080819181BC0180E090E042E050E0A40EC5
:10079000B51EA1010E949704D82ED2188FE7F82E1B
:1007A000F122F6FE0BC05EEFF522D91438F4F4FE08
:1007B00007C0F2FC05C08FEEF82202C01D2D01C05B
:1007C000192DF4FE0DC0FE01ED0DF11D8081803369
:1007D00019F499EEF92208C01F5FF2FE05C003C0AC
:1007E0008F2D867809F01F5F0F2DF3FC14C0F0FEEB
:1007F0000FC01E1510F09D2C0BC09D2C9E0C911A45
:100800001E2D06C080E290E0B3010E946B041F5FC2
:100810001E15C0F304C01E1510F4E11A01C0EE2429
:1008200004FF0FC080E390E0B3010E946B0402FF5D
:100830001DC001FD03C088E790E00EC088E590E090
:100840000BC0802F867891F001FF02C08BE201C0BF
:1008500080E2F7FC8DE290E0B3010E946B0406C0D9
:1008600080E390E0B3010E946B049A94D914C0F322
:10087000DA94F101ED0DF11D808190E0B3010E9449
:100880006B04DD20A9F706C080E290E0B3010E946E
:100890006B04EA94EE20C1F743CEF30166817781C1
:1008A000CB012B96E2E10C941105FC0105906150FF
:1008B00070400110D8F7809590958E0F9F1F089576
:1008C000FC016150704001900110D8F7809590951F
:1008D0008E0F9F1F08950F931F93CF93DF938C016B
:1008E000EB018B8181FF1BC082FF0DC02E813F81F8
:1008F0008C819D812817390764F4E881F98101937F
:10090000F983E88306C0E885F985802F0995892B4E
:1009100031F48E819F8101969F838E8302C00FEFF9
:100920001FEFC801DF91CF911F910F910895FA0138
:10093000AA27283051F1203181F1E8946F936E7F1E
:100940006E5F7F4F8F4F9F4FAF4FB1E03ED0B4E00F
:100950003CD0670F781F891F9A1FA11D680F791F50
:100960008A1F911DA11D6A0F711D811D911DA11D61
:1009700020D009F468943F912AE0269F1124301971
:10098000305D3193DEF6CF010895462F4770405D0C
:100990004193B3E00FD0C9F7F6CF462F4F70405DBB
:1009A0004A3318F0495D31FD4052419302D0A9F716
:1009B000EACFB4E0A6959795879577956795BA9510
:1009C000C9F700976105710508959B01AC010A2ED6
:1009D00006945795479537952795BA95C9F7620FAD
:1009E000731F841F951FA01D08952F923F924F9251
:1009F0005F926F927F928F929F92AF92BF92CF92AF
:100A0000DF92EF92FF920F931F93CF93DF93CDB7B7
:100A1000DEB7CA1BDB0B0FB6F894DEBF0FBECDBF2F
:100A200009942A88398848885F846E847D848C8400
:100A30009B84AA84B984C884DF80EE80FD800C8109
:100A40001B81AA81B981CE0FD11D0FB6F894DEBFEC
:0C0A50000FBECDBFED010895F894FFCF5C
:100A5C0052554E2000535450200041524D2000203E
:100A6C0052414345204F4E21204020555343003ED8
:100A7C0020535450575443482054657374203C0001
:100A8C00253033643A253032642E2530336400012E
:020A9C00FF0158
:00000001FF
