:100000000C9434000C9451000C9451000C94510049
:100010000C9451000C9453000C9451000C9451001A
:100020000C9451000C9451000C9451000C9451000C
:100030000C9451000C9451000C94B1000C9451009C
:100040000C9451000C9451000C9451000C945100EC
:100050000C9451000C9451000C9451000C945100DC
:100060000C9451000C94510011241FBECFEFD8E026
:10007000DEBFCDBF11E0A0E0B1E0EEE9F9E002C0E3
:1000800005900D92A233B107D9F721E0A2E3B1E0C8
:1000900001C01D92AA33B207E1F70E9473010C94CC
:1000A000CD040C9400001F920F920FB60F921124F2
:1000B0002F933F934F935F936F937F938F939F9370
:1000C000AF93BF93CF93EF93FF9389B183FB8827BF
:1000D00080F980933901C0913901C13081F5809157
:1000E000380181111AC060E00E941A0182E50E9465
:1000F000550110923701109236011092350110927D
:1001000034011092330110923201C0930001C09368
:10011000380185B5836085BD12C0C0913801C130FA
:1001200071F485B5887F85BD1092380160E080E06C
:100130000E941A0183E50E945501C0930001FF91BE
:10014000EF91CF91BF91AF919F918F917F916F91DF
:100150005F914F913F912F910F900FBE0F901F9085
:1001600018951F920F920FB60F9211242F933F9361
:100170008F939F9320913801213099F5809136011A
:1001800090913701019690933701809336018091C9
:10019000360190913701883E934078F010923701F4
:1001A000109236018091340190913501019690931F
:1001B00035018093340120930001809134019091A6
:1001C0003501CC9788F0109235011092340180915E
:1001D0003201909133010196909333018093320163
:1001E00003C085B5887F85BD9F918F913F912F91E9
:1001F0000F900FBE0F901F9018959BB19F709BB9E9
:100200009BB1807F982B9BB9299A299A29980895A8
:10021000CF93C82F28980E94FD008C2F8295807F55
:100220000E94FD008FE39FE10197F1F700C00000FD
:10023000CF910895811102C080E801C080EC860F43
:100240000C94080181E00C9408018AB1806F8AB98E
:1002500084B1836084B98FE59AEE0197F1F700C00D
:10026000000080E30E94FD008FE19EE40197F1F71A
:1002700000C0000080E30E94FD008FED91E0019737
:10028000F1F700C0000080E30E94FD0080E20E94C0
:10029000FD008FE39FE10197F1F700C0000088E2C5
:1002A0000E9408018CE00C940801CF93C82F289A73
:1002B0000E94FD008C2F8295807F0E94FD008FE3BD
:1002C0009FE10197F1F700C00000CF910895CF930F
:1002D000DF93EC018991882319F00E945501FACF30
:1002E000DF91CF910895CF93DF93CDB7DEB76197BC
:1002F0000FB6F894DEBF0FBECDBF53985B9A84B59E
:10030000826084BD80916E00826080936E008AEF6F
:1003100087BD85B5887F85BD8091680084608093A6
:10032000680080916D00886080936D000E942501B7
:100330000E94220182E091E00E94670160E081E07A
:100340000E941A0182E191E00E9467012FEF83ED84
:1003500090E3215080409040E1F700C000000E94EF
:100360002201789483E2E82E81E0F82E91E1D92EE3
:100370008E010F5F1F4F809100018130E1F71092D5
:1003800000014091360150913701209134013091A4
:10039000350180913201909133015F934F933F93E8
:1003A0002F939F938F93FF92EF921F92DF921F9351
:1003B0000F930E94E80160E081E00E941A01C801E9
:1003C0000E9467010FB6F894DEBF0FBECDBFD3CF3A
:1003D000AEE0B0E0EEEEF1E00C94A4040D891E89CD
:1003E0008F89988D26E02C831A83098397FF02C09A
:1003F00080E090E801979E838D83AE01455E5F4F5C
:10040000698D7A8DCE0101960E9418024D815E8120
:1004100057FD0AC02F813885421753070CF49A0103
:10042000F801E20FF31F10822E96E4E00C94C00452
:10043000ACE0B0E0EEE1F2E00C9496047C016B01DC
:100440008A01FC0117821682838181FFBDC1CE0122
:1004500001964C01F7019381F60193FD859193FF7D
:1004600081916F01882309F4ABC1853239F493FD82
:10047000859193FF81916F01853229F4B70190E056
:100480000E940004E7CF512C312C20E02032A0F450
:100490008B3269F030F4803259F0833269F4206194
:1004A0002CC08D3239F0803339F4216026C02260AF
:1004B000246023C0286021C027FD27C030ED380FFD
:1004C0003A3078F426FF06C0FAE05F9E300D112422
:1004D000532E13C08AE0389E300D1124332E206233
:1004E0000CC08E3221F426FD6BC1206406C08C3610
:1004F00011F4206802C0883641F4F60193FD85911D
:1005000093FF81916F018111C1CF982F9F7D9554E9
:10051000933028F40C5F1F4FFFE3F9830DC083363F
:1005200031F0833771F0833509F05BC022C0F801E8
:10053000808189830E5F1F4F44244394512C5401C2
:1005400015C03801F2E06F0E711CF801A080B18077
:1005500026FF03C0652D70E002C06FEF7FEFC5017D
:100560002C870E94F5032C0183012C852F77222EE6
:1005700017C03801F2E06F0E711CF801A080B18045
:1005800026FF03C0652D70E002C06FEF7FEFC5014D
:100590002C870E94EA032C012C852068222E8301DF
:1005A00023FC1BC0832D90E048165906B0F4B70118
:1005B00080E290E00E9400043A94F4CFF50127FC19
:1005C000859127FE81915F01B70190E00E940004B0
:1005D00031103A94F1E04F1A51084114510471F767
:1005E000E5C0843611F0893639F5F80127FF07C0D8
:1005F00060817181828193810C5F1F4F08C060818F
:100600007181072E000C880B990B0E5F1F4F2F7600
:10061000722E97FF09C090958095709561957F4FD8
:100620008F4F9F4F2068722E2AE030E0A4010E9475
:100630003804A82EA81844C0853729F42F7EB22E7E
:100640002AE030E025C0F22FF97FBF2E8F36C1F0AF
:1006500018F4883579F0B4C0803719F0883721F064
:10066000AFC02F2F2061B22EB4FE0DC08B2D846041
:10067000B82E09C024FF0AC09F2F9660B92E06C06D
:1006800028E030E005C020E130E002C020E132E0A7
:10069000F801B7FE07C060817181828193810C5F90
:1006A0001F4F06C06081718180E090E00E5F1F4F98
:1006B000A4010E943804A82EA818FB2DFF777F2ED6
:1006C00076FE0BC0372D3E7FA51450F474FE0AC091
:1006D00072FC08C0372D3E7E05C0BA2C372D03C0F2
:1006E000BA2C01C0B52C34FF0DC0FE01EA0DF11D7E
:1006F0008081803311F4397E09C032FF06C0B39483
:10070000B39404C0832F867809F0B39433FD13C0EB
:1007100030FF06C05A2CB31418F4530C5B18B32CDA
:10072000B31468F4B70180E290E03C870E940004B3
:10073000B3943C85F5CFB31410F43B1801C0312CB1
:1007400034FF12C0B70180E390E03C870E940004B0
:100750003C8532FF17C031FD03C088E790E002C03E
:1007600088E590E0B7010CC0832F867859F031FFFF
:1007700002C08BE201C080E237FD8DE2B70190E05C
:100780000E940004A51438F4B70180E390E00E94B1
:1007900000045A94F7CFAA94F401EA0DF11D808168
:1007A000B70190E00E940004A110F5CF332009F4B6
:1007B00051CEB70180E290E00E9400043A94F6CF57
:1007C000F7018681978102C08FEF9FEF2C96E2E1BF
:1007D0000C94B204FC010590615070400110D8F7F0
:1007E000809590958E0F9F1F0895FC016150704079
:1007F00001900110D8F7809590958E0F9F1F089556
:100800000F931F93CF93DF93FB01238121FD03C03F
:100810008FEF9FEF28C022FF16C0468157812481A9
:1008200035814217530744F4A081B1819D012F5FA8
:100830003F4F318320838C93268137812F5F3F4F39
:100840003783268310C0EB01092F182F0084F18510
:10085000E02D0995892BE1F68E819F8101969F837A
:100860008E83812F902FDF91CF911F910F9108954B
:10087000FA01AA27283051F1203181F1E8946F93D1
:100880006E7F6E5F7F4F8F4F9F4FAF4FB1E03ED077
:10089000B4E03CD0670F781F891F9A1FA11D680F15
:1008A000791F8A1F911DA11D6A0F711D811D911D48
:1008B000A11D20D009F468943F912AE0269F1124BD
:1008C0003019305D3193DEF6CF010895462F477021
:1008D000405D4193B3E00FD0C9F7F6CF462F4F707C
:1008E000405D4A3318F0495D31FD4052419302D0DA
:1008F000A9F7EACFB4E0A695979587957795679580
:10090000BA95C9F700976105710508959B01AC017F
:100910000A2E06945795479537952795BA95C9F7A6
:10092000620F731F841F951FA01D08952F923F9281
:100930004F925F926F927F928F929F92AF92BF92EF
:10094000CF92DF92EF92FF920F931F93CF93DF939B
:10095000CDB7DEB7CA1BDB0B0FB6F894DEBF0FBEF8
:10096000CDBF09942A88398848885F846E847D8445
:100970008C849B84AA84B984C884DF80EE80FD8047
:100980000C811B81AA81B981CE0FD11D0FB6F894BD
:0E099000DEBF0FBECDBFED010895F894FFCF7E
:10099E0001012052414345204F4E21204020555306
:1009AE004300476174652054696D65722044494760
:1009BE00203300253033643A253032642E2530330F
:0209CE006400C3
:00000001FF
