:100000000C9434000C9451000C9451000C94CC00CE
:100010000C94B3010C9451000C9451000C945100B9
:100020000C9451000C9451000C9451000C9453000A
:100030000C9451000C9451000C9480000C945100CD
:100040000C9451000C9451000C9451000C945100EC
:100050000C9451000C9451000C9451000C945100DC
:100060000C9451000C94510011241FBECFEFD8E026
:10007000DEBFCDBF11E0A0E0B1E0EAEFFCE002C0DE
:1000800005900D92A634B107D9F711E0A6E4B1E0CE
:1000900001C01D92A736B107E1F70E94EE010C9452
:1000A0007B060C9400001F920F920FB60F92112442
:1000B0008F939F93AF93BF93EF93FF93E1E8F0E0AB
:1000C00080818D7F808310924C0110928500109268
:1000D000840080EA9FE0A0E0B0E080933A01909332
:1000E0003B01A0933C01B0933D01FF91EF91BF9183
:1000F000AF919F918F910F900FBE0F901F90189509
:100100001F920F920FB60F9211242F933F938F934C
:100110009F9320913801213099F58091460190916B
:1001200047010196909347018093460180914601D3
:1001300090914701885E934078F0109247011092A9
:10014000460180914801909149010196909349019F
:100150008093480120933901809148019091490191
:10016000CC9788F0109249011092480180914A0181
:1001700090914B01019690934B0180934A0103C0EB
:1001800085B5887F85BD9F918F913F912F910F906D
:100190000FBE0F901F9018951F920F920FB60F92DF
:1001A00011241F932F933F934F935F936F937F93EC
:1001B0008F939F93AF93BF93EF93FF9383B18093FC
:1001C0004E0180914E0190E080719070F4E0959521
:1001D0008795FA95E1F780934E0180914C01882331
:1001E00091F480914E01813071F480934C01109212
:1001F0004D011092850010928400809181008260F0
:10020000809381009EC010914C01113009F099C07B
:1002100080914E01882309F094C0809181008D7FE8
:100220008093810010924C0110934D0180918400C5
:1002300090918500A0E0B0E080935001909351012F
:10024000A0935201B093530120915001309151017C
:100250004091520150915301CA01B901E2E0660F89
:10026000771F881F991FEA95D1F7620F731F841FAC
:10027000951F2AE330E040E050E00E947403C9017A
:10028000DA0180933A0190933B01A0933C01B09333
:100290003D0180913A0190913B01A0913C01B091C8
:1002A0003D0186399105A105B105C0F58091540144
:1002B0008823A1F510935401809138018823D1F44B
:1002C00060E00E94410382E50E9411031092470101
:1002D00010924601109249011092480110924B0170
:1002E00010924A01109339011093380185B583604B
:1002F00085BD27C010913801113019F585B5887F6B
:1003000085BD8FEF8093380180E060E00E9441035B
:1003100083E50E9411031093390113C080913A01C3
:1003200090913B01A0913C01B0913D018B3F910523
:10033000A105B10530F080915401813011F4109283
:100340005401FF91EF91BF91AF919F918F917F9158
:100350006F915F914F913F912F911F910F900FBE21
:100360000F901F9018951F920F920FB60F921124A5
:100370002F933F934F935F936F937F938F939F93AD
:10038000AF93BF93EF93FF9386B180934F0180911A
:100390004F01817080934F0180914F01882369F450
:1003A000809138018F3F49F480E060E00E94410372
:1003B00082E70E94110310923801FF91EF91BF91E3
:1003C000AF919F918F917F916F915F914F913F91ED
:1003D0002F910F900FBE0F901F9018955F926F9204
:1003E0007F928F929F92AF92BF92CF92DF92EF92C5
:1003F000FF920F931F93DF93CF93CDB7DEB7619733
:100400000FB6F894DEBF0FBECDBF259A2498809119
:10041000680081608093680080916B0080618093A8
:100420006B008091810088608093810080916F00D3
:10043000826080936F008091880090918900806431
:10044000956B909389008093880084B5826084BD09
:1004500080916E00826080936E008AEF87BD85B5C3
:10046000887F85BD3898809168008260809368009D
:1004700080916C00816080936C000E944B030E940D
:100480003D0380E091E00E94210381E060E00E9452
:10049000410380E191E00E94210380E197E220E99D
:1004A00031E0F9013197F1F70197D9F70E943D0347
:1004B00078945E010894A11CB11C91E1C92ED12C45
:1004C00081E2682E81E0782E05E3502E16E5E12EBC
:1004D00011E0F12EB0E38B2EB1E09B2E809139011B
:1004E0008130D9F51092390180914A0190914B01E8
:1004F00020914801309149014091460150914701B6
:100500006DB77EB76C5070400FB6F8947EBF0FBECB
:100510006DBFEDB7FEB73196ADB7BEB71296BC92C0
:10052000AE921197D382C28275826482978386834A
:1005300031872087538742870E949603EDB7FEB725
:100540003C960FB6F894FEBF0FBEEDBF81E060E0B1
:100550000E944103C5010E94210380914D01813019
:1005600009F04EC02091500130915101409152014B
:10057000509153016DB77EB76A5070400FB6F89432
:100580007EBF0FBE6DBF0DB71EB70F5F1F4FADB75C
:10059000BEB71296FC92EE921197F801D382C282F6
:1005A00095828482CA01B901A2E0660F771F881F75
:1005B000991FAA95D1F7620F731F841F951F2AE315
:1005C00030E040E050E00E947403D80116962D936D
:1005D0003D934D935C9319970E949603EDB7FEB738
:1005E0003A960FB6F894FEBF0FBEEDBF80E069E00B
:1005F0000E944103C7010E94210310924D016ECF5A
:100600002D9A852D8A95F1F72D9868CF9BB19F7013
:100610009BB99BB1807F892B8BB9299A299A2998FC
:1006200008951F93182F289A0E940603812F829500
:10063000807F0E94060380E49FE10197F1F71F91FC
:100640000895CF93DF93EC0102C00E9411038991BA
:100650008823D9F7DF91CF9108951F93182F2898F9
:100660000E940603812F8295807F0E94060380E40A
:100670009FE10197F1F71F91089581E00E942D03FA
:100680000895882319F4862F805802C0862F80543D
:100690000E942D0308958AB1806F8AB984B1836066
:1006A00084B980E69AEE0197F1F780E30E94060391
:1006B00080E29EE40197F1F780E30E94060380EE5A
:1006C00091E00197F1F780E30E94060380E20E9427
:1006D000060380E49FE10197F1F788E20E942D0371
:1006E0008CE00E942D030895A1E21A2EAA1BBB1BC9
:1006F000FD010DC0AA1FBB1FEE1FFF1FA217B307EE
:10070000E407F50720F0A21BB30BE40BF50B661F03
:10071000771F881F991F1A9469F7609570958095C7
:1007200090959B01AC01BD01CF010895AEE0B0E012
:10073000ECE9F3E00C9452060D891E898F89988D9F
:1007400097FF02C080E090E801979E838D831A8313
:10075000098386E08C839E01255E3F4FCE01019682
:10076000698D7A8DA9010E94C7034D815E8157FD75
:100770000AC02F813885421753070CF49A01020FE3
:10078000131FF80110822E96E4E00C946E06ABE085
:10079000B0E0EDECF3E00C9444063C012B015A016F
:1007A000FC0117821682838181FD03C06FEF7FEF0A
:1007B000C6C19AE0892E1E010894211C311CF30148
:1007C0002381F20123FD859123FF81912F0188234D
:1007D00009F4B2C1853239F423FD859123FF81915B
:1007E0002F01853229F490E0B3010E94BA05E7CFCA
:1007F000982FFF24EE249924FFE1FF15D0F09B32BF
:1008000069F09C3228F4903259F0933291F40EC082
:100810009D3249F0903369F441E024C052E0F52A5A
:1008200084E0F82A28C098E0F92A25C0E0E1FE2AF1
:1008300022C0F7FC29C0892F80538A3070F4F6FE5D
:1008400005C0989C902C1124980E15C0E89CE02CB3
:100850001124E80EF0E2FF2A0EC09E3229F4F6FCC5
:100860006BC140E4F42A07C09C3619F450E8F52A1D
:1008700002C0983649F4F20123FD959123FF91912E
:100880002F01992309F0B8CF892F8554833018F0B0
:100890008052833038F444E050E0A40EB51E5FE38C
:1008A00059830FC0933631F0933779F0933509F0BF
:1008B00056C020C0F5018081898342E050E0A40E3B
:1008C000B51E610101E010E012C0F501C080D180C9
:1008D000F6FC03C06FEF7FEF02C0692D70E042E0CD
:1008E00050E0A40EB51EC6010E94AF058C015FE763
:1008F000F52214C0F501C080D180F6FC03C06FEF73
:100900007FEF02C0692D70E042E050E0A40EB51EFA
:10091000C6010E94A4058C0150E8F52AF3FE07C029
:100920001AC080E290E0B3010E94BA05EA948E2DCD
:1009300090E008171907A8F30EC0F601F7FC85919F
:10094000F7FE81916F0190E0B3010E94BA05E110BA
:10095000EA94015010400115110579F7EAC0943668
:1009600011F0993669F5F7FE08C0F5012081318153
:100970004281538184E090E00AC0F5018081918139
:100980009C01442737FD4095542F82E090E0A80E4B
:10099000B91E9FE6F92257FF09C050954095309542
:1009A00021953F4F4F4F5F4FE0E8FE2ACA01B90142
:1009B000A1012AE030E00E94E605D82ED21840C0FE
:1009C000953729F41F2D1F7E2AE030E01DC01F2D12
:1009D000197F9F3661F0903720F4983509F0ACC04C
:1009E0000FC0903739F0983709F0A6C004C028E04E
:1009F00030E00AC0106114FD146020E130E004C052
:100A000014FD166020E132E017FF08C0F501608197
:100A100071818281938144E050E008C0F5018081BA
:100A20009181BC0180E090E042E050E0A40EB51E50
:100A3000A1010E94E605D82ED2188FE7F82EF122E8
:100A4000F6FE0BC05EEFF522D91438F4F4FE07C0B1
:100A5000F2FC05C08FEEF82202C01D2D01C0192D39
:100A6000F4FE0DC0FE01ED0DF11D8081803319F4FF
:100A700099EEF92208C01F5FF2FE05C003C08F2D5A
:100A8000867809F01F5F0F2DF3FC14C0F0FE0FC035
:100A90001E1510F09D2C0BC09D2C9E0C911A1E2D26
:100AA00006C080E290E0B3010E94BA051F5F1E15E8
:100AB000C0F304C01E1510F4E11A01C0EE2404FFB7
:100AC0000FC080E390E0B3010E94BA0502FF1DC091
:100AD00001FD03C088E790E00EC088E590E00BC000
:100AE000802F867891F001FF02C08BE201C080E286
:100AF000F7FC8DE290E0B3010E94BA0506C080E3E6
:100B000090E0B3010E94BA059A94D914C0F3DA9424
:100B1000F101ED0DF11D808190E0B3010E94BA0555
:100B2000DD20A9F706C080E290E0B3010E94BA057B
:100B3000EA94EE20C1F743CEF30166817781CB01C1
:100B40002B96E2E10C946006FC0105906150704028
:100B50000110D8F7809590958E0F9F1F0895FC0186
:100B60006150704001900110D8F7809590958E0FDC
:100B70009F1F08950F931F93CF93DF938C01EB0179
:100B80008B8181FF1BC082FF0DC02E813F818C8134
:100B90009D812817390764F4E881F9810193F9836D
:100BA000E88306C0E885F985802F0995892B31F403
:100BB0008E819F8101969F838E8302C00FEF1FEF6E
:100BC000C801DF91CF911F910F910895FA01AA27D3
:100BD000283051F1203181F1E8946F936E7F6E5F80
:100BE0007F4F8F4F9F4FAF4FB1E03ED0B4E03CD02E
:100BF000670F781F891F9A1FA11D680F791F8A1F11
:100C0000911DA11D6A0F711D811D911DA11D20D077
:100C100009F468943F912AE0269F11243019305D31
:100C20003193DEF6CF010895462F4770405D419322
:100C3000B3E00FD0C9F7F6CF462F4F70405D4A336F
:100C400018F0495D31FD4052419302D0A9F7EACF37
:100C5000B4E0A6959795879577956795BA95C9F766
:100C600000976105710508959B01AC010A2E069459
:100C70005795479537952795BA95C9F7620F731F12
:100C8000841F951FA01D08952F923F924F925F924F
:100C90006F927F928F929F92AF92BF92CF92DF928C
:100CA000EF92FF920F931F93CF93DF93CDB7DEB7F1
:100CB000CA1BDB0B0FB6F894DEBF0FBECDBF099485
:100CC0002A88398848885F846E847D848C849B84DC
:100CD000AA84B984C884DF80EE80FD800C811B81EA
:100CE000AA81B981CE0FD11D0FB6F894DEBF0FBE19
:0A0CF000CDBFED010895F894FFCF89
:100CFA002052414345204F4E212040205553430066
:100D0A0052414E474546494E444552204741544573
:100D1A0000253033643A253032642E25303364009E
:100D2A0025346C75206D6D00FF01A00F0000960040
:060D3A000000FA000000B9
:00000001FF
