:100000000C9434000C9451000C9451000C94CC00CE
:100010000C94D3010C9451000C9451000C94510099
:100020000C9451000C9451000C9451000C9453000A
:100030000C9451000C9451000C9480000C945100CD
:100040000C9451000C9451000C9451000C945100EC
:100050000C9451000C9451000C9451000C945100DC
:100060000C9451000C94510011241FBECFEFD8E026
:10007000DEBFCDBF11E0A0E0B1E0E8E6FDE002C0E8
:1000800005900D92A835B107D9F711E0A8E5B1E0C8
:1000900001C01D92AD37B107E1F70E9425020C9413
:1000A000B2060C9400001F920F920FB60F9211240B
:1000B0008F939F93AF93BF93EF93FF93E1E8F0E0AB
:1000C00080818D7F808310925E0110928500109256
:1000D000840080EA9FE0A0E0B0E080934901909323
:1000E0004A01A0934B01B0934C01FF91EF91BF9156
:1000F000AF919F918F910F900FBE0F901F90189509
:100100001F920F920FB60F9211242F933F938F934C
:100110009F9320914701213099F58091580190914A
:10012000590101969093590180935801809158018B
:1001300090915901885E934078F010925901109285
:10014000580180915A0190915B01019690935B0157
:1001500080935A012093480180915A0190915B014C
:10016000CC9788F010925B0110925A0180915C014B
:1001700090915D01019690935D0180935C0103C0B5
:1001800085B5887F85BD9F918F913F912F910F906D
:100190000FBE0F901F9018951F920F920FB60F92DF
:1001A00011241F932F933F934F935F936F937F93EC
:1001B0008F939F93AF93BF93EF93FF9383B18093FC
:1001C00060018091600190E080719070F4E09595FD
:1001D0008795FA95E1F78093600180915E0188230D
:1001E00091F480916001813071F480935E011092EE
:1001F0005F011092850010928400809181008260DE
:1002000080938100BEC010915E01113009F0B9C029
:1002100080916001882309F0B4C0809181008D7FB6
:100220008093810010925E0110935F0180918400A1
:1002300090918500A0E0B0E080936201909363010B
:10024000A0936401B0936501209162013091630134
:100250004091640150916501CA01B901E2E0660F65
:10026000771F881F991FEA95D1F7620F731F841FAC
:10027000951F2AE330E040E050E00E94AB03C90143
:10028000DA018093490190934A01A0934B01B09306
:100290004C0120915C0130915D0140915A015091D7
:1002A0005B018CE390E0BC01269FC001279F900D6D
:1002B000369F900D1124840F951F909356018093C3
:1002C00055018091490190914A01A0914B01B09153
:1002D0004C01885E9340A040B040D0F580916A0107
:1002E0008823B1F510936A01809147018823D9F4DE
:1002F00060E00E94780380E091E00E945803109231
:1003000059011092580110925B0110925A011092FB
:100310005D0110925C01109348011093470185B56F
:10032000836085BD2EC010914701113051F585B510
:10033000887F85BD8FEF8093470180E060E00E9459
:10034000780385E091E00E9458031093480119C09A
:100350008091490190914A01A0914B01B0914C01CB
:1003600083549440A040B04060F080916A01813095
:1003700041F48091550190915601039710F010922D
:100380006A01FF91EF91BF91AF919F918F917F9102
:100390006F915F914F913F912F911F910F900FBEE1
:1003A0000F901F9018951F920F920FB60F92112465
:1003B0002F933F934F935F936F937F938F939F936D
:1003C000AF93BF93EF93FF9386B1809361018091C8
:1003D000610181708093610180916101882369F4DA
:1003E000809147018F3F49F480E060E00E947803EC
:1003F0008AE091E00E94580315C080916101882332
:1004000099F480914701813079F485B5887F85BD65
:1004100080E060E00E9478038AE091E00E94580347
:1004200010926A0110924701FF91EF91BF91AF9135
:100430009F918F917F916F915F914F913F912F91FC
:100440000F900FBE0F901F9018955F926F927F9242
:100450008F929F92AF92BF92CF92DF92EF92FF92D4
:100460000F931F93DF93CF93CDB7DEB761970FB68E
:10047000F894DEBF0FBECDBF259A24988091680006
:1004800081608093680080916B00806180936B0035
:100490008091810088608093810080916F008260EC
:1004A00080936F0080918800909189008064956BA3
:1004B000909389008093880084B5826084BD809188
:1004C0006E00826080936E008AEF87BD85B5887F5D
:1004D00085BD389880916800826080936800809123
:1004E0006C00816080936C000E9482030E94740300
:1004F0008FE091E00E94580381E060E00E94780361
:100500008FE191E00E94580380E197E220E931E019
:10051000F9013197F1F70197D9F70E9474037894A4
:100520005E010894A11CB11C91E1C92ED12C80E37D
:10053000682E81E0782E05E3502E1CE6E12E11E0B6
:10054000F12EBFE38B2EB1E09B2E809148018130CC
:10055000D9F51092480180915C0190915D01209144
:100560005A0130915B0140915801509159016DB78A
:100570007EB76C5070400FB6F8947EBF0FBE6DBF53
:10058000EDB7FEB73196ADB7BEB71296BC92AE923C
:100590001197D382C2827582648297838683318762
:1005A0002087538742870E94CD03EDB7FEB73C9664
:1005B0000FB6F894FEBF0FBEEDBF81E060E00E9471
:1005C0007803C5010E94580380915F01813009F0D2
:1005D0004EC02091620130916301409164015091BD
:1005E00065016DB77EB76A5070400FB6F8947EBF54
:1005F0000FBE6DBF0DB71EB70F5F1F4FADB7BEB7B4
:100600001296FC92EE921197F801D382C2829582E3
:100610008482CA01B901A2E0660F771F881F991F63
:10062000AA95D1F7620F731F841F951F2AE330E04C
:1006300040E050E00E94AB03D80116962D933D9305
:100640004D935C9319970E94CD03EDB7FEB73A9690
:100650000FB6F894FEBF0FBEEDBF80E069E00E94C8
:100660007803C7010E94580310925F016ECF2D9A44
:10067000852D8A95F1F72D9868CF9BB19F709BB916
:100680009BB1807F892B8BB9299A299A2998089543
:100690001F93182F289A0E943D03812F8295807FF7
:1006A0000E943D0380E49FE10197F1F71F910895B7
:1006B000CF93DF93EC0102C00E9448038991882305
:1006C000D9F7DF91CF9108951F93182F28980E9492
:1006D0003D03812F8295807F0E943D0380E49FE14E
:1006E0000197F1F71F91089581E00E946403089536
:1006F000882319F4862F805802C0862F80540E94C8
:10070000640308958AB1806F8AB984B1836084B923
:1007100080E69AEE0197F1F780E30E943D0380E2C4
:100720009EE40197F1F780E30E943D0380EE91E0A3
:100730000197F1F780E30E943D0380E20E943D03B0
:1007400080E49FE10197F1F788E20E9464038CE066
:100750000E9464030895A1E21A2EAA1BBB1BFD018F
:100760000DC0AA1FBB1FEE1FFF1FA217B307E40790
:10077000F50720F0A21BB30BE40BF50B661F771FE8
:10078000881F991F1A9469F76095709580959095C8
:100790009B01AC01BD01CF010895AEE0B0E0E3EDF7
:1007A000F3E00C9489060D891E898F89988D97FF37
:1007B00002C080E090E801979E838D831A830983AD
:1007C00086E08C839E01255E3F4FCE010196698DA8
:1007D0007A8DA9010E94FE034D815E8157FD0AC0FA
:1007E0002F813885421753070CF49A01020F131F0B
:1007F000F80110822E96E4E00C94A506ABE0B0E080
:10080000E4E0F4E00C947B063C012B015A01FC016E
:1008100017821682838181FD03C06FEF7FEFC6C10F
:100820009AE0892E1E010894211C311CF3012381BA
:10083000F20123FD859123FF81912F01882309F483
:10084000B2C1853239F423FD859123FF81912F01B7
:10085000853229F490E0B3010E94F105E7CF982F8B
:10086000FF24EE249924FFE1FF15D0F09B3269F0BC
:100870009C3228F4903259F0933291F40EC09D329C
:1008800049F0903369F441E024C052E0F52A84E055
:10089000F82A28C098E0F92A25C0E0E1FE2A22C003
:1008A000F7FC29C0892F80538A3070F4F6FE05C00A
:1008B000989C902C1124980E15C0E89CE02C1124D3
:1008C000E80EF0E2FF2A0EC09E3229F4F6FC6BC15E
:1008D00040E4F42A07C09C3619F450E8F52A02C017
:1008E000983649F4F20123FD959123FF91912F0150
:1008F000992309F0B8CF892F8554833018F080529E
:10090000833038F444E050E0A40EB51E5FE3598311
:100910000FC0933631F0933779F0933509F056C014
:1009200020C0F5018081898342E050E0A40EB51E0D
:10093000610101E010E012C0F501C080D180F6FC39
:1009400003C06FEF7FEF02C0692D70E042E050E01E
:10095000A40EB51EC6010E94E6058C015FE7F522D4
:1009600014C0F501C080D180F6FC03C06FEF7FEFAB
:1009700002C0692D70E042E050E0A40EB51EC60131
:100980000E94DB058C0150E8F52AF3FE07C01AC06F
:1009900080E290E0B3010E94F105EA948E2D90E090
:1009A00008171907A8F30EC0F601F7FC8591F7FEAA
:1009B00081916F0190E0B3010E94F105E110EA948A
:1009C000015010400115110579F7EAC0943611F075
:1009D000993669F5F7FE08C0F50120813181428121
:1009E000538184E090E00AC0F501808191819C01EF
:1009F000442737FD4095542F82E090E0A80EB91EA1
:100A00009FE6F92257FF09C05095409530952195F2
:100A10003F4F4F4F5F4FE0E8FE2ACA01B901A101E5
:100A20002AE030E00E941D06D82ED21840C095372B
:100A300029F41F2D1F7E2AE030E01DC01F2D197FD5
:100A40009F3661F0903720F4983509F0ACC00FC0A4
:100A5000903739F0983709F0A6C004C028E030E09C
:100A60000AC0106114FD146020E130E004C014FDE0
:100A7000166020E132E017FF08C0F5016081718146
:100A80008281938144E050E008C0F501808191812A
:100A9000BC0180E090E042E050E0A40EB51EA10150
:100AA0000E941D06D82ED2188FE7F82EF122F6FEEE
:100AB0000BC05EEFF522D91438F4F4FE07C0F2FC47
:100AC00005C08FEEF82202C01D2D01C0192DF4FEC5
:100AD0000DC0FE01ED0DF11D8081803319F499EEFA
:100AE000F92208C01F5FF2FE05C003C08F2D867873
:100AF00009F01F5F0F2DF3FC14C0F0FE0FC01E1590
:100B000010F09D2C0BC09D2C9E0C911A1E2D06C022
:100B100080E290E0B3010E94F1051F5F1E15C0F353
:100B200004C01E1510F4E11A01C0EE2404FF0FC02A
:100B300080E390E0B3010E94F10502FF1DC001FDBA
:100B400003C088E790E00EC088E590E00BC0802FDE
:100B5000867891F001FF02C08BE201C080E2F7FCD1
:100B60008DE290E0B3010E94F10506C080E390E0C1
:100B7000B3010E94F1059A94D914C0F3DA94F101FB
:100B8000ED0DF11D808190E0B3010E94F105DD20A3
:100B9000A9F706C080E290E0B3010E94F105EA9453
:100BA000EE20C1F743CEF30166817781CB012B960E
:100BB000E2E10C949706FC01059061507040011031
:100BC000D8F7809590958E0F9F1F0895FC01615076
:100BD000704001900110D8F7809590958E0F9F1F5F
:100BE00008950F931F93CF93DF938C01EB018B81BB
:100BF00081FF1BC082FF0DC02E813F818C819D81B2
:100C00002817390764F4E881F9810193F983E883AF
:100C100006C0E885F985802F0995892B31F48E81EE
:100C20009F8101969F838E8302C00FEF1FEFC80143
:100C3000DF91CF911F910F910895FA01AA272830D3
:100C400051F1203181F1E8946F936E7F6E5F7F4F99
:100C50008F4F9F4FAF4FB1E03ED0B4E03CD0670F15
:100C6000781F891F9A1FA11D680F791F8A1F911D68
:100C7000A11D6A0F711D811D911DA11D20D009F4B8
:100C800068943F912AE0269F11243019305D3193FA
:100C9000DEF6CF010895462F4770405D4193B3E0E3
:100CA0000FD0C9F7F6CF462F4F70405D4A3318F08A
:100CB000495D31FD4052419302D0A9F7EACFB4E03B
:100CC000A6959795879577956795BA95C9F70097F3
:100CD0006105710508959B01AC010A2E0694579594
:100CE000479537952795BA95C9F7620F731F841FEB
:100CF000951FA01D08952F923F924F925F926F9281
:100D00007F928F929F92AF92BF92CF92DF92EF929B
:100D1000FF920F931F93CF93DF93CDB7DEB7CA1B1C
:100D2000DB0B0FB6F894DEBF0FBECDBF09942A8847
:100D3000398848885F846E847D848C849B84AA84EF
:100D4000B984C884DF80EE80FD800C811B81AA817C
:100D5000B981CE0FD11D0FB6F894DEBF0FBECDBF47
:080D6000ED010895F894FFCFA6
:100D680052554E2000535450200041524D2000202F
:100D780052414345204F4E212040205553430052B5
:100D8800414E474546494E44455220474154450047
:100D9800253033643A253032642E253033640025FB
:100DA800346C75206D6D00FF01A00F0000E8030092
:080DB8000042040000F00300FA
:00000001FF
