:100000000C9434000C9449000C9449000C94490061
:100010000C9449000C9449000C9449000C9449003C
:100020000C9449000C9449000C9449000C9449002C
:100030000C9449000C9449000C9449000C9449001C
:100040000C9449000C9449000C9449000C9449000C
:100050000C9449000C9449000C9449000C944900FC
:100060000C9449000C94490011241FBECFEFD8E036
:10007000DEBFCDBF11E0A0E0B1E0E2E8F2E002C0F7
:1000800005900D92A834B107D9F70E944B000C944B
:100090003F010C9400000F931F93CF93DF930E94B6
:1000A000D0000E94C2000E94390100E911E00E94C4
:1000B0001301EC010E94C200C230D105B9F0C33077
:1000C000D10528F4209761F02197E9F40CC0C430E1
:1000D000D10579F0C430D10578F02597A1F40FC08F
:1000E00080E091E00EC08AE091E00BC088E191E0F1
:1000F00008C084E291E005C080E391E002C08AE399
:1001000091E00E94A60088EE93E0F8013197F1F7A4
:10011000019769F2FACF9BB19F709BB99BB1807F29
:10012000892B8BB9299A299A299808951F93182FFA
:10013000289A0E948B00812F8295807F0E948B00DD
:1001400080E49FE10197F1F71F910895CF93DF932A
:10015000EC0102C00E94960089918823D9F7DF91B3
:10016000CF9108951F93182F28980E948B00812FFC
:100170008295807F0E948B0080E49FE10197F1F7D8
:100180001F91089581E00E94B2000895882319F418
:10019000862F805802C0862F80540E94B200089596
:1001A0008AB1806F8AB984B1836084B980E69AEE9F
:1001B0000197F1F780E30E948B0080E29EE40197B3
:1001C000F1F780E30E948B0080EE91E00197F1F758
:1001D00080E30E948B0080E20E948B0080E49FE11C
:1001E0000197F1F788E20E94B2008CE00E94B20011
:1001F0000895ECE7F0E09081982B908380818066F1
:100200008083EAE7F0E080818768808308958091A9
:100210007A00806480937A0080917A0086FDFCCF1A
:100220008091790008950E940701982F8C3D18F065
:1002300020E030E01CC08E5B8E3118F421E030E00D
:1002400016C0892F82588C3318F422E030E00FC09A
:10025000892F8055823318F424E030E008C09E5185
:10026000923318F025E030E002C023E030E0C9010D
:10027000089580E00E94F9000E94D0000895F8944B
:02028000FFCFAE
:100282006E6F20627574746F6E0073656C65637453
:1002920020627574746F6E006C656674206275748A
:1002A200746F6E00646F776E20627574746F6E0087
:1002B200757020627574746F6E007269676874205D
:0802C200627574746F6E000098
:00000001FF
