:100000000C9434000C9449000C9449000C94490061
:100010000C9449000C9449000C9449000C9449003C
:100020000C9449000C9449000C9449000C9449002C
:100030000C9449000C9449000C9449000C9449001C
:100040000C9449000C9449000C9449000C9449000C
:100050000C9449000C9449000C9449000C944900FC
:100060000C9449000C94490011241FBECFEFD8E036
:10007000DEBFCDBF11E0A0E0B1E0E8E9F1E002C0F1
:1000800005900D92AE31B107D9F70E944B000C9448
:10009000CA000C9400000E94A1000E94930080E01E
:1000A00091E00E94770081E060E00E94970080E18B
:1000B00091E00E947700FFCF9BB19F709BB99BB1ED
:1000C000807F892B8BB9299A299A299808951F93A3
:1000D000182F289A0E945C00812F8295807F0E94B1
:1000E0005C0080E49FE10197F1F71F910895CF93A1
:1000F000DF93EC0102C00E94670089918823D9F741
:10010000DF91CF9108951F93182F28980E945C00CB
:10011000812F8295807F0E945C0080E49FE101979F
:10012000F1F71F91089581E00E94830008958823CC
:1001300019F4862F805802C0862F80540E948300B5
:1001400008958AB1806F8AB984B1836084B980E6EA
:100150009AEE0197F1F780E30E945C0080E29EE452
:100160000197F1F780E30E945C0080EE91E0019737
:10017000F1F780E30E945C0080E20E945C0080E472
:100180009FE10197F1F788E20E9483008FE00E94CF
:0801900083000895F894FFCFED
:100198002052414345204F4E2120402055534300D3
:0E01A800202020204C43442054657374000036
:00000001FF
