:100000000C9434000C9449000C9449000C94490061
:100010000C9449000C9449000C9449000C9449003C
:100020000C9449000C9449000C9449000C9449002C
:100030000C9449000C9449000C9449000C9449001C
:100040000C9449000C9449000C9449000C9449000C
:100050000C9449000C9449000C9449000C944900FC
:100060000C9449000C94490011241FBECFEFD8E036
:10007000DEBFCDBF11E0A0E0B1E0ECE9F1E002C0ED
:1000800005900D92A232B107D9F70E944B000C9453
:10009000CC000C9400000E94A3000E94950080E018
:1000A00091E00E94790081E060E00E94990080E187
:1000B00091E00E94790080E090E008959BB19F70EC
:1000C0009BB99BB1807F892B8BB9299A299A299852
:1000D00008951F93182F289A0E945E00812F829501
:1000E000807F0E945E0080E49FE10197F1F71F91FD
:1000F0000895CF93DF93EC0102C00E9469008991BB
:100100008823D9F7DF91CF9108951F93182F28984E
:100110000E945E00812F8295807F0E945E0080E4B5
:100120009FE10197F1F71F91089581E00E948500FA
:100130000895882319F4862F805802C0862F805492
:100140000E94850008958AB1806F8AB984B1836066
:1001500084B980E69AEE0197F1F780E30E945E0091
:1001600080E29EE40197F1F780E30E945E0080EE5A
:1001700091E00197F1F780E30E945E0080E20E9427
:100180005E0080E49FE10197F1F788E20E9485001C
:0C0190008CE00E9485000895F894FFCFD9
:10019C002052414345204F4E2120402055534300CF
:1001AC003E3E3E204C43442054657374203C3C3C02
:0201BC00000041
:00000001FF
